{
  "contractName": "Follower",
  "abi": [
    {
      "inputs": [],
      "stateMutability": "nonpayable",
      "type": "constructor"
    },
    {
      "inputs": [
        {
          "internalType": "address",
          "name": "sender",
          "type": "address"
        },
        {
          "internalType": "uint256",
          "name": "tokenId",
          "type": "uint256"
        },
        {
          "internalType": "address",
          "name": "owner",
          "type": "address"
        }
      ],
      "name": "ERC721IncorrectOwner",
      "type": "error"
    },
    {
      "inputs": [
        {
          "internalType": "address",
          "name": "operator",
          "type": "address"
        },
        {
          "internalType": "uint256",
          "name": "tokenId",
          "type": "uint256"
        }
      ],
      "name": "ERC721InsufficientApproval",
      "type": "error"
    },
    {
      "inputs": [
        {
          "internalType": "address",
          "name": "approver",
          "type": "address"
        }
      ],
      "name": "ERC721InvalidApprover",
      "type": "error"
    },
    {
      "inputs": [
        {
          "internalType": "address",
          "name": "operator",
          "type": "address"
        }
      ],
      "name": "ERC721InvalidOperator",
      "type": "error"
    },
    {
      "inputs": [
        {
          "internalType": "address",
          "name": "owner",
          "type": "address"
        }
      ],
      "name": "ERC721InvalidOwner",
      "type": "error"
    },
    {
      "inputs": [
        {
          "internalType": "address",
          "name": "receiver",
          "type": "address"
        }
      ],
      "name": "ERC721InvalidReceiver",
      "type": "error"
    },
    {
      "inputs": [
        {
          "internalType": "address",
          "name": "sender",
          "type": "address"
        }
      ],
      "name": "ERC721InvalidSender",
      "type": "error"
    },
    {
      "inputs": [
        {
          "internalType": "uint256",
          "name": "tokenId",
          "type": "uint256"
        }
      ],
      "name": "ERC721NonexistentToken",
      "type": "error"
    },
    {
      "anonymous": false,
      "inputs": [
        {
          "indexed": true,
          "internalType": "address",
          "name": "owner",
          "type": "address"
        },
        {
          "indexed": true,
          "internalType": "address",
          "name": "approved",
          "type": "address"
        },
        {
          "indexed": true,
          "internalType": "uint256",
          "name": "tokenId",
          "type": "uint256"
        }
      ],
      "name": "Approval",
      "type": "event"
    },
    {
      "anonymous": false,
      "inputs": [
        {
          "indexed": true,
          "internalType": "address",
          "name": "owner",
          "type": "address"
        },
        {
          "indexed": true,
          "internalType": "address",
          "name": "operator",
          "type": "address"
        },
        {
          "indexed": false,
          "internalType": "bool",
          "name": "approved",
          "type": "bool"
        }
      ],
      "name": "ApprovalForAll",
      "type": "event"
    },
    {
      "anonymous": false,
      "inputs": [
        {
          "indexed": true,
          "internalType": "address",
          "name": "from",
          "type": "address"
        },
        {
          "indexed": true,
          "internalType": "address",
          "name": "to",
          "type": "address"
        },
        {
          "indexed": true,
          "internalType": "uint256",
          "name": "tokenId",
          "type": "uint256"
        }
      ],
      "name": "Transfer",
      "type": "event"
    },
    {
      "anonymous": false,
      "inputs": [
        {
          "indexed": false,
          "internalType": "address",
          "name": "ownerAddress",
          "type": "address"
        },
        {
          "indexed": false,
          "internalType": "uint256",
          "name": "_tokenId",
          "type": "uint256"
        },
        {
          "indexed": false,
          "internalType": "uint256",
          "name": "",
          "type": "uint256"
        }
      ],
      "name": "callSafeMintSuccess",
      "type": "event"
    },
    {
      "anonymous": false,
      "inputs": [
        {
          "indexed": false,
          "internalType": "string",
          "name": "tokenURI",
          "type": "string"
        }
      ],
      "name": "callSetTokenURI",
      "type": "event"
    },
    {
      "anonymous": false,
      "inputs": [
        {
          "indexed": false,
          "internalType": "uint256",
          "name": "tokenId",
          "type": "uint256"
        }
      ],
      "name": "callTokenURI",
      "type": "event"
    },
    {
      "inputs": [],
      "name": "_tokenId",
      "outputs": [
        {
          "internalType": "uint256",
          "name": "",
          "type": "uint256"
        }
      ],
      "stateMutability": "view",
      "type": "function"
    },
    {
      "inputs": [],
      "name": "_tokenURI",
      "outputs": [
        {
          "internalType": "string",
          "name": "",
          "type": "string"
        }
      ],
      "stateMutability": "view",
      "type": "function"
    },
    {
      "inputs": [
        {
          "internalType": "address",
          "name": "to",
          "type": "address"
        },
        {
          "internalType": "uint256",
          "name": "tokenId",
          "type": "uint256"
        }
      ],
      "name": "approve",
      "outputs": [],
      "stateMutability": "nonpayable",
      "type": "function"
    },
    {
      "inputs": [
        {
          "internalType": "address",
          "name": "owner",
          "type": "address"
        }
      ],
      "name": "balanceOf",
      "outputs": [
        {
          "internalType": "uint256",
          "name": "",
          "type": "uint256"
        }
      ],
      "stateMutability": "view",
      "type": "function"
    },
    {
      "inputs": [
        {
          "internalType": "uint256",
          "name": "tokenId",
          "type": "uint256"
        }
      ],
      "name": "getApproved",
      "outputs": [
        {
          "internalType": "address",
          "name": "",
          "type": "address"
        }
      ],
      "stateMutability": "view",
      "type": "function"
    },
    {
      "inputs": [
        {
          "internalType": "address",
          "name": "owner",
          "type": "address"
        },
        {
          "internalType": "address",
          "name": "operator",
          "type": "address"
        }
      ],
      "name": "isApprovedForAll",
      "outputs": [
        {
          "internalType": "bool",
          "name": "",
          "type": "bool"
        }
      ],
      "stateMutability": "view",
      "type": "function"
    },
    {
      "inputs": [],
      "name": "name",
      "outputs": [
        {
          "internalType": "string",
          "name": "",
          "type": "string"
        }
      ],
      "stateMutability": "view",
      "type": "function"
    },
    {
      "inputs": [
        {
          "internalType": "uint256",
          "name": "tokenId",
          "type": "uint256"
        }
      ],
      "name": "ownerOf",
      "outputs": [
        {
          "internalType": "address",
          "name": "",
          "type": "address"
        }
      ],
      "stateMutability": "view",
      "type": "function"
    },
    {
      "inputs": [
        {
          "internalType": "address",
          "name": "from",
          "type": "address"
        },
        {
          "internalType": "address",
          "name": "to",
          "type": "address"
        },
        {
          "internalType": "uint256",
          "name": "tokenId",
          "type": "uint256"
        }
      ],
      "name": "safeTransferFrom",
      "outputs": [],
      "stateMutability": "nonpayable",
      "type": "function"
    },
    {
      "inputs": [
        {
          "internalType": "address",
          "name": "from",
          "type": "address"
        },
        {
          "internalType": "address",
          "name": "to",
          "type": "address"
        },
        {
          "internalType": "uint256",
          "name": "tokenId",
          "type": "uint256"
        },
        {
          "internalType": "bytes",
          "name": "data",
          "type": "bytes"
        }
      ],
      "name": "safeTransferFrom",
      "outputs": [],
      "stateMutability": "nonpayable",
      "type": "function"
    },
    {
      "inputs": [
        {
          "internalType": "address",
          "name": "operator",
          "type": "address"
        },
        {
          "internalType": "bool",
          "name": "approved",
          "type": "bool"
        }
      ],
      "name": "setApprovalForAll",
      "outputs": [],
      "stateMutability": "nonpayable",
      "type": "function"
    },
    {
      "inputs": [
        {
          "internalType": "bytes4",
          "name": "interfaceId",
          "type": "bytes4"
        }
      ],
      "name": "supportsInterface",
      "outputs": [
        {
          "internalType": "bool",
          "name": "",
          "type": "bool"
        }
      ],
      "stateMutability": "view",
      "type": "function"
    },
    {
      "inputs": [],
      "name": "symbol",
      "outputs": [
        {
          "internalType": "string",
          "name": "",
          "type": "string"
        }
      ],
      "stateMutability": "view",
      "type": "function"
    },
    {
      "inputs": [
        {
          "internalType": "address",
          "name": "from",
          "type": "address"
        },
        {
          "internalType": "address",
          "name": "to",
          "type": "address"
        },
        {
          "internalType": "uint256",
          "name": "tokenId",
          "type": "uint256"
        }
      ],
      "name": "transferFrom",
      "outputs": [],
      "stateMutability": "nonpayable",
      "type": "function"
    },
    {
      "inputs": [],
      "name": "getTotalSupply",
      "outputs": [
        {
          "internalType": "uint256",
          "name": "",
          "type": "uint256"
        }
      ],
      "stateMutability": "view",
      "type": "function"
    },
    {
      "inputs": [],
      "name": "getTokenId",
      "outputs": [
        {
          "internalType": "uint256",
          "name": "",
          "type": "uint256"
        }
      ],
      "stateMutability": "view",
      "type": "function"
    },
    {
      "inputs": [],
      "name": "getCreateAt",
      "outputs": [
        {
          "internalType": "uint256",
          "name": "",
          "type": "uint256"
        }
      ],
      "stateMutability": "view",
      "type": "function"
    },
    {
      "inputs": [
        {
          "internalType": "string",
          "name": "tokenURI2",
          "type": "string"
        }
      ],
      "name": "setTokenURI",
      "outputs": [],
      "stateMutability": "nonpayable",
      "type": "function"
    },
    {
      "inputs": [
        {
          "internalType": "uint256",
          "name": "tokenUri",
          "type": "uint256"
        }
      ],
      "name": "tokenURI",
      "outputs": [
        {
          "internalType": "string",
          "name": "",
          "type": "string"
        }
      ],
      "stateMutability": "view",
      "type": "function"
    },
    {
      "inputs": [],
      "name": "safeMint",
      "outputs": [],
      "stateMutability": "nonpayable",
      "type": "function"
    }
  ],
  "bytecode": "0x60806040523480156200001157600080fd5b506040518060400160405280600881526020017f466f6c6c6f7765720000000000000000000000000000000000000000000000008152506040518060400160405280600181526020017f460000000000000000000000000000000000000000000000000000000000000081525081600090816200008f9190620003b4565b508060019081620000a19190620003b4565b50505060006006819055506040518060400160405280601a81526020017f687474703a2f2f3130332e3130312e3136322e37323a3330303000000000000081525060089081620000f29190620003b4565b5033600960006101000a81548173ffffffffffffffffffffffffffffffffffffffff021916908373ffffffffffffffffffffffffffffffffffffffff1602179055506200049b565b600081519050919050565b7f4e487b7100000000000000000000000000000000000000000000000000000000600052604160045260246000fd5b7f4e487b7100000000000000000000000000000000000000000000000000000000600052602260045260246000fd5b60006002820490506001821680620001bc57607f821691505b602082108103620001d257620001d162000174565b5b50919050565b60008190508160005260206000209050919050565b60006020601f8301049050919050565b600082821b905092915050565b6000600883026200023c7fffffffffffffffffffffffffffffffffffffffffffffffffffffffffffffffff82620001fd565b620002488683620001fd565b95508019841693508086168417925050509392505050565b6000819050919050565b6000819050919050565b6000620002956200028f620002898462000260565b6200026a565b62000260565b9050919050565b6000819050919050565b620002b18362000274565b620002c9620002c0826200029c565b8484546200020a565b825550505050565b600090565b620002e0620002d1565b620002ed818484620002a6565b505050565b5b81811015620003155762000309600082620002d6565b600181019050620002f3565b5050565b601f82111562000364576200032e81620001d8565b6200033984620001ed565b8101602085101562000349578190505b620003616200035885620001ed565b830182620002f2565b50505b505050565b600082821c905092915050565b6000620003896000198460080262000369565b1980831691505092915050565b6000620003a4838362000376565b9150826002028217905092915050565b620003bf826200013a565b67ffffffffffffffff811115620003db57620003da62000145565b5b620003e78254620001a3565b620003f482828562000319565b600060209050601f8311600181146200042c576000841562000417578287015190505b62000423858262000396565b86555062000493565b601f1984166200043c86620001d8565b60005b8281101562000466578489015182556001820191506020850194506020810190506200043f565b8683101562000486578489015162000482601f89168262000376565b8355505b6001600288020188555050505b505050505050565b61270180620004ab6000396000f3fe608060405234801561001057600080fd5b506004361061012c5760003560e01c80636871ee40116100ad578063b88d4fde11610071578063b88d4fde1461031f578063c4e41b221461033b578063c87b56dd14610359578063e0df5b6f14610389578063e985e9c5146103a55761012c565b80636871ee401461028d57806370a082311461029757806395d89b41146102c7578063a22cb465146102e5578063b4ce37d2146103015761012c565b806323b872dd116100f457806323b872dd146101e9578063248225141461020557806342842e0e14610223578063517c3aaa1461023f5780636352211e1461025d5761012c565b8063010a38f51461013157806301ffc9a71461014f57806306fdde031461017f578063081812fc1461019d578063095ea7b3146101cd575b600080fd5b6101396103d5565b60405161014691906119f9565b60405180910390f35b61016960048036038101906101649190611a80565b6104fe565b6040516101769190611ac8565b60405180910390f35b6101876105e0565b6040516101949190611b73565b60405180910390f35b6101b760048036038101906101b29190611bc1565b610672565b6040516101c49190611c2f565b60405180910390f35b6101e760048036038101906101e29190611c76565b61068e565b005b61020360048036038101906101fe9190611cb6565b6106a4565b005b61020d6107a6565b60405161021a91906119f9565b60405180910390f35b61023d60048036038101906102389190611cb6565b6107ac565b005b6102476107cc565b60405161025491906119f9565b60405180910390f35b61027760048036038101906102729190611bc1565b6108f5565b6040516102849190611c2f565b60405180910390f35b610295610907565b005b6102b160048036038101906102ac9190611d09565b610a6a565b6040516102be91906119f9565b60405180910390f35b6102cf610b24565b6040516102dc9190611b73565b60405180910390f35b6102ff60048036038101906102fa9190611d62565b610bb6565b005b610309610bcc565b6040516103169190611b73565b60405180910390f35b61033960048036038101906103349190611ed7565b610c5a565b005b610343610c77565b60405161035091906119f9565b60405180910390f35b610373600480360381019061036e9190611bc1565b610c81565b6040516103809190611b73565b60405180910390f35b6103a3600480360381019061039e9190611ffb565b610d15565b005b6103bf60048036038101906103ba9190612044565b610def565b6040516103cc9190611ac8565b60405180910390f35b600080600760003373ffffffffffffffffffffffffffffffffffffffff1673ffffffffffffffffffffffffffffffffffffffff168152602001908152602001600020600001541180156104775750600160065461043291906120b3565b600760003373ffffffffffffffffffffffffffffffffffffffff1673ffffffffffffffffffffffffffffffffffffffff16815260200190815260200160002060000154105b6104b6576040517f08c379a00000000000000000000000000000000000000000000000000000000081526004016104ad90612133565b60405180910390fd5b600760003373ffffffffffffffffffffffffffffffffffffffff1673ffffffffffffffffffffffffffffffffffffffff16815260200190815260200160002060000154905090565b60007f80ac58cd000000000000000000000000000000000000000000000000000000007bffffffffffffffffffffffffffffffffffffffffffffffffffffffff1916827bffffffffffffffffffffffffffffffffffffffffffffffffffffffff191614806105c957507f5b5e139f000000000000000000000000000000000000000000000000000000007bffffffffffffffffffffffffffffffffffffffffffffffffffffffff1916827bffffffffffffffffffffffffffffffffffffffffffffffffffffffff1916145b806105d957506105d882610e83565b5b9050919050565b6060600080546105ef90612182565b80601f016020809104026020016040519081016040528092919081815260200182805461061b90612182565b80156106685780601f1061063d57610100808354040283529160200191610668565b820191906000526020600020905b81548152906001019060200180831161064b57829003601f168201915b5050505050905090565b600061067d82610eed565b5061068782610f75565b9050919050565b6106a0828261069b610fb2565b610fba565b5050565b600073ffffffffffffffffffffffffffffffffffffffff168273ffffffffffffffffffffffffffffffffffffffff16036107165760006040517f64a0ae9200000000000000000000000000000000000000000000000000000000815260040161070d9190611c2f565b60405180910390fd5b600061072a8383610725610fb2565b610fcc565b90508373ffffffffffffffffffffffffffffffffffffffff168173ffffffffffffffffffffffffffffffffffffffff16146107a0578382826040517f64283d7b000000000000000000000000000000000000000000000000000000008152600401610797939291906121b3565b60405180910390fd5b50505050565b60065481565b6107c783838360405180602001604052806000815250610c5a565b505050565b600080600760003373ffffffffffffffffffffffffffffffffffffffff1673ffffffffffffffffffffffffffffffffffffffff1681526020019081526020016000206000015411801561086e5750600160065461082991906120b3565b600760003373ffffffffffffffffffffffffffffffffffffffff1673ffffffffffffffffffffffffffffffffffffffff16815260200190815260200160002060000154105b6108ad576040517f08c379a00000000000000000000000000000000000000000000000000000000081526004016108a490612133565b60405180910390fd5b600760003373ffffffffffffffffffffffffffffffffffffffff1673ffffffffffffffffffffffffffffffffffffffff16815260200190815260200160002060010154905090565b600061090082610eed565b9050919050565b6000600760003373ffffffffffffffffffffffffffffffffffffffff1673ffffffffffffffffffffffffffffffffffffffff168152602001908152602001600020600001541461098c576040517f08c379a000000000000000000000000000000000000000000000000000000000815260040161098390612236565b60405180910390fd5b6109946111e6565b60004290506040518060400160405280600654815260200182815250600760003373ffffffffffffffffffffffffffffffffffffffff1673ffffffffffffffffffffffffffffffffffffffff1681526020019081526020016000206000820151816000015560208201518160010155905050610a1233600654611200565b7f5f13699a3c69b9148acd966ad008dc268344edc523c2b33ea868a6e08b29bab83360065483604051610a4793929190612256565b60405180910390a1600a6000815480929190610a629061228d565b919050555050565b60008073ffffffffffffffffffffffffffffffffffffffff168273ffffffffffffffffffffffffffffffffffffffff1603610add5760006040517f89c62b64000000000000000000000000000000000000000000000000000000008152600401610ad49190611c2f565b60405180910390fd5b600360008373ffffffffffffffffffffffffffffffffffffffff1673ffffffffffffffffffffffffffffffffffffffff168152602001908152602001600020549050919050565b606060018054610b3390612182565b80601f0160208091040260200160405190810160405280929190818152602001828054610b5f90612182565b8015610bac5780601f10610b8157610100808354040283529160200191610bac565b820191906000526020600020905b815481529060010190602001808311610b8f57829003601f168201915b5050505050905090565b610bc8610bc1610fb2565b838361121e565b5050565b60088054610bd990612182565b80601f0160208091040260200160405190810160405280929190818152602001828054610c0590612182565b8015610c525780601f10610c2757610100808354040283529160200191610c52565b820191906000526020600020905b815481529060010190602001808311610c3557829003601f168201915b505050505081565b610c658484846106a4565b610c718484848461138d565b50505050565b6000600a54905090565b606060088054610c9090612182565b80601f0160208091040260200160405190810160405280929190818152602001828054610cbc90612182565b8015610d095780601f10610cde57610100808354040283529160200191610d09565b820191906000526020600020905b815481529060010190602001808311610cec57829003601f168201915b50505050509050919050565b3373ffffffffffffffffffffffffffffffffffffffff16600960009054906101000a900473ffffffffffffffffffffffffffffffffffffffff1673ffffffffffffffffffffffffffffffffffffffff1614610da5576040517f08c379a0000000000000000000000000000000000000000000000000000000008152600401610d9c90612321565b60405180910390fd5b7f09d827eec4d076dc41b055d2e1c704cbea6539df5370f2d72710473ff6e2ece781604051610dd49190611b73565b60405180910390a18060089081610deb91906124ed565b5050565b6000600560008473ffffffffffffffffffffffffffffffffffffffff1673ffffffffffffffffffffffffffffffffffffffff16815260200190815260200160002060008373ffffffffffffffffffffffffffffffffffffffff1673ffffffffffffffffffffffffffffffffffffffff16815260200190815260200160002060009054906101000a900460ff16905092915050565b60007f01ffc9a7000000000000000000000000000000000000000000000000000000007bffffffffffffffffffffffffffffffffffffffffffffffffffffffff1916827bffffffffffffffffffffffffffffffffffffffffffffffffffffffff1916149050919050565b600080610ef983611544565b9050600073ffffffffffffffffffffffffffffffffffffffff168173ffffffffffffffffffffffffffffffffffffffff1603610f6c57826040517f7e273289000000000000000000000000000000000000000000000000000000008152600401610f6391906119f9565b60405180910390fd5b80915050919050565b60006004600083815260200190815260200160002060009054906101000a900473ffffffffffffffffffffffffffffffffffffffff169050919050565b600033905090565b610fc78383836001611581565b505050565b600080610fd884611544565b9050600073ffffffffffffffffffffffffffffffffffffffff168373ffffffffffffffffffffffffffffffffffffffff161461101a57611019818486611746565b5b600073ffffffffffffffffffffffffffffffffffffffff168173ffffffffffffffffffffffffffffffffffffffff16146110ab5761105c600085600080611581565b6001600360008373ffffffffffffffffffffffffffffffffffffffff1673ffffffffffffffffffffffffffffffffffffffff168152602001908152602001600020600082825403925050819055505b600073ffffffffffffffffffffffffffffffffffffffff168573ffffffffffffffffffffffffffffffffffffffff161461112e576001600360008773ffffffffffffffffffffffffffffffffffffffff1673ffffffffffffffffffffffffffffffffffffffff168152602001908152602001600020600082825401925050819055505b846002600086815260200190815260200160002060006101000a81548173ffffffffffffffffffffffffffffffffffffffff021916908373ffffffffffffffffffffffffffffffffffffffff160217905550838573ffffffffffffffffffffffffffffffffffffffff168273ffffffffffffffffffffffffffffffffffffffff167fddf252ad1be2c89b69c2b068fc378daa952ba7f163c4a11628f55a4df523b3ef60405160405180910390a4809150509392505050565b600660008154809291906111f99061228d565b9190505550565b61121a82826040518060200160405280600081525061180a565b5050565b600073ffffffffffffffffffffffffffffffffffffffff168273ffffffffffffffffffffffffffffffffffffffff160361128f57816040517f5b08ba180000000000000000000000000000000000000000000000000000000081526004016112869190611c2f565b60405180910390fd5b80600560008573ffffffffffffffffffffffffffffffffffffffff1673ffffffffffffffffffffffffffffffffffffffff16815260200190815260200160002060008473ffffffffffffffffffffffffffffffffffffffff1673ffffffffffffffffffffffffffffffffffffffff16815260200190815260200160002060006101000a81548160ff0219169083151502179055508173ffffffffffffffffffffffffffffffffffffffff168373ffffffffffffffffffffffffffffffffffffffff167f17307eab39ab6107e8899845ad3d59bd9653f200f220920489ca2b5937696c31836040516113809190611ac8565b60405180910390a3505050565b60008373ffffffffffffffffffffffffffffffffffffffff163b111561153e578273ffffffffffffffffffffffffffffffffffffffff1663150b7a026113d1610fb2565b8685856040518563ffffffff1660e01b81526004016113f39493929190612614565b6020604051808303816000875af192505050801561142f57506040513d601f19601f8201168201806040525081019061142c9190612675565b60015b6114b3573d806000811461145f576040519150601f19603f3d011682016040523d82523d6000602084013e611464565b606091505b5060008151036114ab57836040517f64a0ae920000000000000000000000000000000000000000000000000000000081526004016114a29190611c2f565b60405180910390fd5b805181602001fd5b63150b7a0260e01b7bffffffffffffffffffffffffffffffffffffffffffffffffffffffff1916817bffffffffffffffffffffffffffffffffffffffffffffffffffffffff19161461153c57836040517f64a0ae920000000000000000000000000000000000000000000000000000000081526004016115339190611c2f565b60405180910390fd5b505b50505050565b60006002600083815260200190815260200160002060009054906101000a900473ffffffffffffffffffffffffffffffffffffffff169050919050565b80806115ba5750600073ffffffffffffffffffffffffffffffffffffffff168273ffffffffffffffffffffffffffffffffffffffff1614155b156116ee5760006115ca84610eed565b9050600073ffffffffffffffffffffffffffffffffffffffff168373ffffffffffffffffffffffffffffffffffffffff161415801561163557508273ffffffffffffffffffffffffffffffffffffffff168173ffffffffffffffffffffffffffffffffffffffff1614155b801561164857506116468184610def565b155b1561168a57826040517fa9fbf51f0000000000000000000000000000000000000000000000000000000081526004016116819190611c2f565b60405180910390fd5b81156116ec57838573ffffffffffffffffffffffffffffffffffffffff168273ffffffffffffffffffffffffffffffffffffffff167f8c5be1e5ebec7d5bd14f71427d1e84f3dd0314c0f7b2291e5b200ac8c7c3b92560405160405180910390a45b505b836004600085815260200190815260200160002060006101000a81548173ffffffffffffffffffffffffffffffffffffffff021916908373ffffffffffffffffffffffffffffffffffffffff16021790555050505050565b611751838383611826565b61180557600073ffffffffffffffffffffffffffffffffffffffff168373ffffffffffffffffffffffffffffffffffffffff16036117c657806040517f7e2732890000000000000000000000000000000000000000000000000000000081526004016117bd91906119f9565b60405180910390fd5b81816040517f177e802f0000000000000000000000000000000000000000000000000000000081526004016117fc9291906126a2565b60405180910390fd5b505050565b61181483836118e7565b611821600084848461138d565b505050565b60008073ffffffffffffffffffffffffffffffffffffffff168373ffffffffffffffffffffffffffffffffffffffff16141580156118de57508273ffffffffffffffffffffffffffffffffffffffff168473ffffffffffffffffffffffffffffffffffffffff16148061189f575061189e8484610def565b5b806118dd57508273ffffffffffffffffffffffffffffffffffffffff166118c583610f75565b73ffffffffffffffffffffffffffffffffffffffff16145b5b90509392505050565b600073ffffffffffffffffffffffffffffffffffffffff168273ffffffffffffffffffffffffffffffffffffffff16036119595760006040517f64a0ae920000000000000000000000000000000000000000000000000000000081526004016119509190611c2f565b60405180910390fd5b600061196783836000610fcc565b9050600073ffffffffffffffffffffffffffffffffffffffff168173ffffffffffffffffffffffffffffffffffffffff16146119db5760006040517f73c6ac6e0000000000000000000000000000000000000000000000000000000081526004016119d29190611c2f565b60405180910390fd5b505050565b6000819050919050565b6119f3816119e0565b82525050565b6000602082019050611a0e60008301846119ea565b92915050565b6000604051905090565b600080fd5b600080fd5b60007fffffffff0000000000000000000000000000000000000000000000000000000082169050919050565b611a5d81611a28565b8114611a6857600080fd5b50565b600081359050611a7a81611a54565b92915050565b600060208284031215611a9657611a95611a1e565b5b6000611aa484828501611a6b565b91505092915050565b60008115159050919050565b611ac281611aad565b82525050565b6000602082019050611add6000830184611ab9565b92915050565b600081519050919050565b600082825260208201905092915050565b60005b83811015611b1d578082015181840152602081019050611b02565b60008484015250505050565b6000601f19601f8301169050919050565b6000611b4582611ae3565b611b4f8185611aee565b9350611b5f818560208601611aff565b611b6881611b29565b840191505092915050565b60006020820190508181036000830152611b8d8184611b3a565b905092915050565b611b9e816119e0565b8114611ba957600080fd5b50565b600081359050611bbb81611b95565b92915050565b600060208284031215611bd757611bd6611a1e565b5b6000611be584828501611bac565b91505092915050565b600073ffffffffffffffffffffffffffffffffffffffff82169050919050565b6000611c1982611bee565b9050919050565b611c2981611c0e565b82525050565b6000602082019050611c446000830184611c20565b92915050565b611c5381611c0e565b8114611c5e57600080fd5b50565b600081359050611c7081611c4a565b92915050565b60008060408385031215611c8d57611c8c611a1e565b5b6000611c9b85828601611c61565b9250506020611cac85828601611bac565b9150509250929050565b600080600060608486031215611ccf57611cce611a1e565b5b6000611cdd86828701611c61565b9350506020611cee86828701611c61565b9250506040611cff86828701611bac565b9150509250925092565b600060208284031215611d1f57611d1e611a1e565b5b6000611d2d84828501611c61565b91505092915050565b611d3f81611aad565b8114611d4a57600080fd5b50565b600081359050611d5c81611d36565b92915050565b60008060408385031215611d7957611d78611a1e565b5b6000611d8785828601611c61565b9250506020611d9885828601611d4d565b9150509250929050565b600080fd5b600080fd5b7f4e487b7100000000000000000000000000000000000000000000000000000000600052604160045260246000fd5b611de482611b29565b810181811067ffffffffffffffff82111715611e0357611e02611dac565b5b80604052505050565b6000611e16611a14565b9050611e228282611ddb565b919050565b600067ffffffffffffffff821115611e4257611e41611dac565b5b611e4b82611b29565b9050602081019050919050565b82818337600083830152505050565b6000611e7a611e7584611e27565b611e0c565b905082815260208101848484011115611e9657611e95611da7565b5b611ea1848285611e58565b509392505050565b600082601f830112611ebe57611ebd611da2565b5b8135611ece848260208601611e67565b91505092915050565b60008060008060808587031215611ef157611ef0611a1e565b5b6000611eff87828801611c61565b9450506020611f1087828801611c61565b9350506040611f2187828801611bac565b925050606085013567ffffffffffffffff811115611f4257611f41611a23565b5b611f4e87828801611ea9565b91505092959194509250565b600067ffffffffffffffff821115611f7557611f74611dac565b5b611f7e82611b29565b9050602081019050919050565b6000611f9e611f9984611f5a565b611e0c565b905082815260208101848484011115611fba57611fb9611da7565b5b611fc5848285611e58565b509392505050565b600082601f830112611fe257611fe1611da2565b5b8135611ff2848260208601611f8b565b91505092915050565b60006020828403121561201157612010611a1e565b5b600082013567ffffffffffffffff81111561202f5761202e611a23565b5b61203b84828501611fcd565b91505092915050565b6000806040838503121561205b5761205a611a1e565b5b600061206985828601611c61565b925050602061207a85828601611c61565b9150509250929050565b7f4e487b7100000000000000000000000000000000000000000000000000000000600052601160045260246000fd5b60006120be826119e0565b91506120c9836119e0565b92508282019050808211156120e1576120e0612084565b5b92915050565b7f596f752068617665206e6f74206e667421000000000000000000000000000000600082015250565b600061211d601183611aee565b9150612128826120e7565b602082019050919050565b6000602082019050818103600083015261214c81612110565b9050919050565b7f4e487b7100000000000000000000000000000000000000000000000000000000600052602260045260246000fd5b6000600282049050600182168061219a57607f821691505b6020821081036121ad576121ac612153565b5b50919050565b60006060820190506121c86000830186611c20565b6121d560208301856119ea565b6121e26040830184611c20565b949350505050565b7f596f7520617265206d696e746564210000000000000000000000000000000000600082015250565b6000612220600f83611aee565b915061222b826121ea565b602082019050919050565b6000602082019050818103600083015261224f81612213565b9050919050565b600060608201905061226b6000830186611c20565b61227860208301856119ea565b61228560408301846119ea565b949350505050565b6000612298826119e0565b91507fffffffffffffffffffffffffffffffffffffffffffffffffffffffffffffffff82036122ca576122c9612084565b5b600182019050919050565b7f4e6f7420416c6c6f77204d6574686f6421000000000000000000000000000000600082015250565b600061230b601183611aee565b9150612316826122d5565b602082019050919050565b6000602082019050818103600083015261233a816122fe565b9050919050565b60008190508160005260206000209050919050565b60006020601f8301049050919050565b600082821b905092915050565b6000600883026123a37fffffffffffffffffffffffffffffffffffffffffffffffffffffffffffffffff82612366565b6123ad8683612366565b95508019841693508086168417925050509392505050565b6000819050919050565b60006123ea6123e56123e0846119e0565b6123c5565b6119e0565b9050919050565b6000819050919050565b612404836123cf565b612418612410826123f1565b848454612373565b825550505050565b600090565b61242d612420565b6124388184846123fb565b505050565b5b8181101561245c57612451600082612425565b60018101905061243e565b5050565b601f8211156124a15761247281612341565b61247b84612356565b8101602085101561248a578190505b61249e61249685612356565b83018261243d565b50505b505050565b600082821c905092915050565b60006124c4600019846008026124a6565b1980831691505092915050565b60006124dd83836124b3565b9150826002028217905092915050565b6124f682611ae3565b67ffffffffffffffff81111561250f5761250e611dac565b5b6125198254612182565b612524828285612460565b600060209050601f8311600181146125575760008415612545578287015190505b61254f85826124d1565b8655506125b7565b601f19841661256586612341565b60005b8281101561258d57848901518255600182019150602085019450602081019050612568565b868310156125aa57848901516125a6601f8916826124b3565b8355505b6001600288020188555050505b505050505050565b600081519050919050565b600082825260208201905092915050565b60006125e6826125bf565b6125f081856125ca565b9350612600818560208601611aff565b61260981611b29565b840191505092915050565b60006080820190506126296000830187611c20565b6126366020830186611c20565b61264360408301856119ea565b818103606083015261265581846125db565b905095945050505050565b60008151905061266f81611a54565b92915050565b60006020828403121561268b5761268a611a1e565b5b600061269984828501612660565b91505092915050565b60006040820190506126b76000830185611c20565b6126c460208301846119ea565b939250505056fea2646970667358221220b31d2dc5948fd786525d0f2b448c101ed0e9a26b55963e349999bb854d69044a64736f6c63430008150033",
  "immutableReferences": {},
  "source": "// SPDX-License-Identifier: MIT\npragma solidity ^0.8.21;\n\nimport '@openzeppelin/contracts/token/ERC721/ERC721.sol';\n\ncontract Follower is ERC721 {\n  struct OwnerInfo {\n    uint256 tokenId;\n    uint256 createdAt;\n  }\n\n  uint256 public _tokenId;\n  mapping(address => OwnerInfo) _ownerList;\n  string public _tokenURI;\n  address private _authorAddress;\n  uint256 totalSupply;\n\n  function getTotalSupply() public view returns (uint256) {\n    return totalSupply;\n  }\n\n  function increment() private {\n    _tokenId++;\n  }\n\n  modifier isAuthor() {\n    require(_authorAddress == msg.sender, 'Not Allow Method!');\n    _;\n  }\n\n  modifier isOwnerNft() {\n    require(\n      _ownerList[msg.sender].tokenId > 0 && _ownerList[msg.sender].tokenId < _tokenId + 1,\n      'You have not nft!'\n    );\n    _;\n  }\n\n  function getTokenId() public view isOwnerNft returns (uint256) {\n    return _ownerList[msg.sender].tokenId;\n  }\n\n  function getCreateAt() public view isOwnerNft returns (uint256) {\n    return _ownerList[msg.sender].createdAt;\n  }\n\n  constructor() ERC721('Follower', 'F') {\n    _tokenId = 0;\n    _tokenURI = 'http://103.101.162.72:3000';\n    _authorAddress = msg.sender;\n  }\n\n  event callSetTokenURI(string tokenURI);\n\n  function setTokenURI(string memory tokenURI2) public isAuthor {\n    emit callSetTokenURI(tokenURI2);\n    _tokenURI = tokenURI2;\n  }\n\n  event callTokenURI(uint256 tokenId);\n\n  function tokenURI(uint256 tokenUri) public view virtual override(ERC721) returns (string memory) {\n    return _tokenURI;\n  }\n\n  event callSafeMintSuccess(address ownerAddress, uint _tokenId, uint256);\n\n  function safeMint() public {\n    require(_ownerList[msg.sender].tokenId == 0, 'You are minted!');\n    increment();\n    uint256 createAt = block.timestamp;\n    _ownerList[msg.sender] = OwnerInfo(_tokenId, createAt);\n    _safeMint(msg.sender, _tokenId);\n    emit callSafeMintSuccess(msg.sender, _tokenId, createAt);\n    totalSupply++;\n  }\n}\n",
  "sourcePath": "/Users/khoadao/Desktop/workspace/solidity/SolidityProject/contracts/Follower.sol",
  "compiler": {
    "name": "solc",
    "version": "0.8.21+commit.d9974bed.Emscripten.clang"
  },
  "schemaVersion": "3.4.16",
  "updatedAt": "2024-07-29T22:51:38.391Z",
  "devdoc": {
    "errors": {
      "ERC721IncorrectOwner(address,uint256,address)": [
        {
          "details": "Indicates an error related to the ownership over a particular token. Used in transfers.",
          "params": {
            "owner": "Address of the current owner of a token.",
            "sender": "Address whose tokens are being transferred.",
            "tokenId": "Identifier number of a token."
          }
        }
      ],
      "ERC721InsufficientApproval(address,uint256)": [
        {
          "details": "Indicates a failure with the `operator`s approval. Used in transfers.",
          "params": {
            "operator": "Address that may be allowed to operate on tokens without being their owner.",
            "tokenId": "Identifier number of a token."
          }
        }
      ],
      "ERC721InvalidApprover(address)": [
        {
          "details": "Indicates a failure with the `approver` of a token to be approved. Used in approvals.",
          "params": {
            "approver": "Address initiating an approval operation."
          }
        }
      ],
      "ERC721InvalidOperator(address)": [
        {
          "details": "Indicates a failure with the `operator` to be approved. Used in approvals.",
          "params": {
            "operator": "Address that may be allowed to operate on tokens without being their owner."
          }
        }
      ],
      "ERC721InvalidOwner(address)": [
        {
          "details": "Indicates that an address can't be an owner. For example, `address(0)` is a forbidden owner in EIP-20. Used in balance queries.",
          "params": {
            "owner": "Address of the current owner of a token."
          }
        }
      ],
      "ERC721InvalidReceiver(address)": [
        {
          "details": "Indicates a failure with the token `receiver`. Used in transfers.",
          "params": {
            "receiver": "Address to which tokens are being transferred."
          }
        }
      ],
      "ERC721InvalidSender(address)": [
        {
          "details": "Indicates a failure with the token `sender`. Used in transfers.",
          "params": {
            "sender": "Address whose tokens are being transferred."
          }
        }
      ],
      "ERC721NonexistentToken(uint256)": [
        {
          "details": "Indicates a `tokenId` whose `owner` is the zero address.",
          "params": {
            "tokenId": "Identifier number of a token."
          }
        }
      ]
    },
    "events": {
      "Approval(address,address,uint256)": {
        "details": "Emitted when `owner` enables `approved` to manage the `tokenId` token."
      },
      "ApprovalForAll(address,address,bool)": {
        "details": "Emitted when `owner` enables or disables (`approved`) `operator` to manage all of its assets."
      },
      "Transfer(address,address,uint256)": {
        "details": "Emitted when `tokenId` token is transferred from `from` to `to`."
      }
    },
    "kind": "dev",
    "methods": {
      "approve(address,uint256)": {
        "details": "See {IERC721-approve}."
      },
      "balanceOf(address)": {
        "details": "See {IERC721-balanceOf}."
      },
      "getApproved(uint256)": {
        "details": "See {IERC721-getApproved}."
      },
      "isApprovedForAll(address,address)": {
        "details": "See {IERC721-isApprovedForAll}."
      },
      "name()": {
        "details": "See {IERC721Metadata-name}."
      },
      "ownerOf(uint256)": {
        "details": "See {IERC721-ownerOf}."
      },
      "safeTransferFrom(address,address,uint256)": {
        "details": "See {IERC721-safeTransferFrom}."
      },
      "safeTransferFrom(address,address,uint256,bytes)": {
        "details": "See {IERC721-safeTransferFrom}."
      },
      "setApprovalForAll(address,bool)": {
        "details": "See {IERC721-setApprovalForAll}."
      },
      "supportsInterface(bytes4)": {
        "details": "See {IERC165-supportsInterface}."
      },
      "symbol()": {
        "details": "See {IERC721Metadata-symbol}."
      },
      "transferFrom(address,address,uint256)": {
        "details": "See {IERC721-transferFrom}."
      }
    },
    "version": 1
  },
  "userdoc": {
    "kind": "user",
    "methods": {},
    "version": 1
  }
}