{
  "contractName": "Follower",
  "abi": [
    {
      "inputs": [],
      "stateMutability": "nonpayable",
      "type": "constructor"
    },
    {
      "inputs": [
        {
          "internalType": "address",
          "name": "sender",
          "type": "address"
        },
        {
          "internalType": "uint256",
          "name": "tokenId",
          "type": "uint256"
        },
        {
          "internalType": "address",
          "name": "owner",
          "type": "address"
        }
      ],
      "name": "ERC721IncorrectOwner",
      "type": "error"
    },
    {
      "inputs": [
        {
          "internalType": "address",
          "name": "operator",
          "type": "address"
        },
        {
          "internalType": "uint256",
          "name": "tokenId",
          "type": "uint256"
        }
      ],
      "name": "ERC721InsufficientApproval",
      "type": "error"
    },
    {
      "inputs": [
        {
          "internalType": "address",
          "name": "approver",
          "type": "address"
        }
      ],
      "name": "ERC721InvalidApprover",
      "type": "error"
    },
    {
      "inputs": [
        {
          "internalType": "address",
          "name": "operator",
          "type": "address"
        }
      ],
      "name": "ERC721InvalidOperator",
      "type": "error"
    },
    {
      "inputs": [
        {
          "internalType": "address",
          "name": "owner",
          "type": "address"
        }
      ],
      "name": "ERC721InvalidOwner",
      "type": "error"
    },
    {
      "inputs": [
        {
          "internalType": "address",
          "name": "receiver",
          "type": "address"
        }
      ],
      "name": "ERC721InvalidReceiver",
      "type": "error"
    },
    {
      "inputs": [
        {
          "internalType": "address",
          "name": "sender",
          "type": "address"
        }
      ],
      "name": "ERC721InvalidSender",
      "type": "error"
    },
    {
      "inputs": [
        {
          "internalType": "uint256",
          "name": "tokenId",
          "type": "uint256"
        }
      ],
      "name": "ERC721NonexistentToken",
      "type": "error"
    },
    {
      "anonymous": false,
      "inputs": [
        {
          "indexed": true,
          "internalType": "address",
          "name": "owner",
          "type": "address"
        },
        {
          "indexed": true,
          "internalType": "address",
          "name": "approved",
          "type": "address"
        },
        {
          "indexed": true,
          "internalType": "uint256",
          "name": "tokenId",
          "type": "uint256"
        }
      ],
      "name": "Approval",
      "type": "event"
    },
    {
      "anonymous": false,
      "inputs": [
        {
          "indexed": true,
          "internalType": "address",
          "name": "owner",
          "type": "address"
        },
        {
          "indexed": true,
          "internalType": "address",
          "name": "operator",
          "type": "address"
        },
        {
          "indexed": false,
          "internalType": "bool",
          "name": "approved",
          "type": "bool"
        }
      ],
      "name": "ApprovalForAll",
      "type": "event"
    },
    {
      "anonymous": false,
      "inputs": [
        {
          "indexed": true,
          "internalType": "address",
          "name": "from",
          "type": "address"
        },
        {
          "indexed": true,
          "internalType": "address",
          "name": "to",
          "type": "address"
        },
        {
          "indexed": true,
          "internalType": "uint256",
          "name": "tokenId",
          "type": "uint256"
        }
      ],
      "name": "Transfer",
      "type": "event"
    },
    {
      "anonymous": false,
      "inputs": [
        {
          "indexed": false,
          "internalType": "string",
          "name": "tokenURI",
          "type": "string"
        }
      ],
      "name": "callSetTokenURI",
      "type": "event"
    },
    {
      "anonymous": false,
      "inputs": [
        {
          "indexed": false,
          "internalType": "uint256",
          "name": "tokenId",
          "type": "uint256"
        }
      ],
      "name": "callTokenURI",
      "type": "event"
    },
    {
      "inputs": [],
      "name": "_tokenURI",
      "outputs": [
        {
          "internalType": "string",
          "name": "",
          "type": "string"
        }
      ],
      "stateMutability": "view",
      "type": "function"
    },
    {
      "inputs": [
        {
          "internalType": "address",
          "name": "to",
          "type": "address"
        },
        {
          "internalType": "uint256",
          "name": "tokenId",
          "type": "uint256"
        }
      ],
      "name": "approve",
      "outputs": [],
      "stateMutability": "nonpayable",
      "type": "function"
    },
    {
      "inputs": [
        {
          "internalType": "address",
          "name": "owner",
          "type": "address"
        }
      ],
      "name": "balanceOf",
      "outputs": [
        {
          "internalType": "uint256",
          "name": "",
          "type": "uint256"
        }
      ],
      "stateMutability": "view",
      "type": "function"
    },
    {
      "inputs": [
        {
          "internalType": "uint256",
          "name": "tokenId",
          "type": "uint256"
        }
      ],
      "name": "getApproved",
      "outputs": [
        {
          "internalType": "address",
          "name": "",
          "type": "address"
        }
      ],
      "stateMutability": "view",
      "type": "function"
    },
    {
      "inputs": [
        {
          "internalType": "address",
          "name": "owner",
          "type": "address"
        },
        {
          "internalType": "address",
          "name": "operator",
          "type": "address"
        }
      ],
      "name": "isApprovedForAll",
      "outputs": [
        {
          "internalType": "bool",
          "name": "",
          "type": "bool"
        }
      ],
      "stateMutability": "view",
      "type": "function"
    },
    {
      "inputs": [],
      "name": "name",
      "outputs": [
        {
          "internalType": "string",
          "name": "",
          "type": "string"
        }
      ],
      "stateMutability": "view",
      "type": "function"
    },
    {
      "inputs": [
        {
          "internalType": "uint256",
          "name": "tokenId",
          "type": "uint256"
        }
      ],
      "name": "ownerOf",
      "outputs": [
        {
          "internalType": "address",
          "name": "",
          "type": "address"
        }
      ],
      "stateMutability": "view",
      "type": "function"
    },
    {
      "inputs": [
        {
          "internalType": "address",
          "name": "from",
          "type": "address"
        },
        {
          "internalType": "address",
          "name": "to",
          "type": "address"
        },
        {
          "internalType": "uint256",
          "name": "tokenId",
          "type": "uint256"
        }
      ],
      "name": "safeTransferFrom",
      "outputs": [],
      "stateMutability": "nonpayable",
      "type": "function"
    },
    {
      "inputs": [
        {
          "internalType": "address",
          "name": "from",
          "type": "address"
        },
        {
          "internalType": "address",
          "name": "to",
          "type": "address"
        },
        {
          "internalType": "uint256",
          "name": "tokenId",
          "type": "uint256"
        },
        {
          "internalType": "bytes",
          "name": "data",
          "type": "bytes"
        }
      ],
      "name": "safeTransferFrom",
      "outputs": [],
      "stateMutability": "nonpayable",
      "type": "function"
    },
    {
      "inputs": [
        {
          "internalType": "address",
          "name": "operator",
          "type": "address"
        },
        {
          "internalType": "bool",
          "name": "approved",
          "type": "bool"
        }
      ],
      "name": "setApprovalForAll",
      "outputs": [],
      "stateMutability": "nonpayable",
      "type": "function"
    },
    {
      "inputs": [
        {
          "internalType": "bytes4",
          "name": "interfaceId",
          "type": "bytes4"
        }
      ],
      "name": "supportsInterface",
      "outputs": [
        {
          "internalType": "bool",
          "name": "",
          "type": "bool"
        }
      ],
      "stateMutability": "view",
      "type": "function"
    },
    {
      "inputs": [],
      "name": "symbol",
      "outputs": [
        {
          "internalType": "string",
          "name": "",
          "type": "string"
        }
      ],
      "stateMutability": "view",
      "type": "function"
    },
    {
      "inputs": [
        {
          "internalType": "address",
          "name": "from",
          "type": "address"
        },
        {
          "internalType": "address",
          "name": "to",
          "type": "address"
        },
        {
          "internalType": "uint256",
          "name": "tokenId",
          "type": "uint256"
        }
      ],
      "name": "transferFrom",
      "outputs": [],
      "stateMutability": "nonpayable",
      "type": "function"
    },
    {
      "inputs": [],
      "name": "increment",
      "outputs": [],
      "stateMutability": "nonpayable",
      "type": "function"
    },
    {
      "inputs": [],
      "name": "getTokenId",
      "outputs": [
        {
          "internalType": "uint256",
          "name": "",
          "type": "uint256"
        }
      ],
      "stateMutability": "view",
      "type": "function"
    },
    {
      "inputs": [
        {
          "internalType": "string",
          "name": "tokenURI2",
          "type": "string"
        }
      ],
      "name": "setTokenURI",
      "outputs": [],
      "stateMutability": "nonpayable",
      "type": "function"
    },
    {
      "inputs": [
        {
          "internalType": "uint256",
          "name": "tokenUri",
          "type": "uint256"
        }
      ],
      "name": "tokenURI",
      "outputs": [
        {
          "internalType": "string",
          "name": "",
          "type": "string"
        }
      ],
      "stateMutability": "view",
      "type": "function"
    },
    {
      "inputs": [],
      "name": "safeMint",
      "outputs": [],
      "stateMutability": "nonpayable",
      "type": "function"
    }
  ],
  "bytecode": "0x60806040523480156200001157600080fd5b506040518060400160405280600881526020017f466f6c6c6f7765720000000000000000000000000000000000000000000000008152506040518060400160405280600181526020017f460000000000000000000000000000000000000000000000000000000000000081525081600090816200008f9190620003b4565b508060019081620000a19190620003b4565b50505060006006819055506040518060400160405280600681526020017f6d792075726c000000000000000000000000000000000000000000000000000081525060089081620000f29190620003b4565b5033600960006101000a81548173ffffffffffffffffffffffffffffffffffffffff021916908373ffffffffffffffffffffffffffffffffffffffff1602179055506200049b565b600081519050919050565b7f4e487b7100000000000000000000000000000000000000000000000000000000600052604160045260246000fd5b7f4e487b7100000000000000000000000000000000000000000000000000000000600052602260045260246000fd5b60006002820490506001821680620001bc57607f821691505b602082108103620001d257620001d162000174565b5b50919050565b60008190508160005260206000209050919050565b60006020601f8301049050919050565b600082821b905092915050565b6000600883026200023c7fffffffffffffffffffffffffffffffffffffffffffffffffffffffffffffffff82620001fd565b620002488683620001fd565b95508019841693508086168417925050509392505050565b6000819050919050565b6000819050919050565b6000620002956200028f620002898462000260565b6200026a565b62000260565b9050919050565b6000819050919050565b620002b18362000274565b620002c9620002c0826200029c565b8484546200020a565b825550505050565b600090565b620002e0620002d1565b620002ed818484620002a6565b505050565b5b81811015620003155762000309600082620002d6565b600181019050620002f3565b5050565b601f82111562000364576200032e81620001d8565b6200033984620001ed565b8101602085101562000349578190505b620003616200035885620001ed565b830182620002f2565b50505b505050565b600082821c905092915050565b6000620003896000198460080262000369565b1980831691505092915050565b6000620003a4838362000376565b9150826002028217905092915050565b620003bf826200013a565b67ffffffffffffffff811115620003db57620003da62000145565b5b620003e78254620001a3565b620003f482828562000319565b600060209050601f8311600181146200042c576000841562000417578287015190505b62000423858262000396565b86555062000493565b601f1984166200043c86620001d8565b60005b8281101562000466578489015182556001820191506020850194506020810190506200043f565b8683101562000486578489015162000482601f89168262000376565b8355505b6001600288020188555050505b505050505050565b6121f980620004ab6000396000f3fe608060405234801561001057600080fd5b50600436106101165760003560e01c806370a08231116100a2578063b88d4fde11610071578063b88d4fde146102cd578063c87b56dd146102e9578063d09de08a14610319578063e0df5b6f14610323578063e985e9c51461033f57610116565b806370a082311461024557806395d89b4114610275578063a22cb46514610293578063b4ce37d2146102af57610116565b8063095ea7b3116100e9578063095ea7b3146101b757806323b872dd146101d357806342842e0e146101ef5780636352211e1461020b5780636871ee401461023b57610116565b8063010a38f51461011b57806301ffc9a71461013957806306fdde0314610169578063081812fc14610187575b600080fd5b61012361036f565b6040516101309190611634565b60405180910390f35b610153600480360381019061014e91906116bb565b610379565b6040516101609190611703565b60405180910390f35b61017161045b565b60405161017e91906117ae565b60405180910390f35b6101a1600480360381019061019c91906117fc565b6104ed565b6040516101ae919061186a565b60405180910390f35b6101d160048036038101906101cc91906118b1565b610509565b005b6101ed60048036038101906101e891906118f1565b61051f565b005b610209600480360381019061020491906118f1565b610621565b005b610225600480360381019061022091906117fc565b610641565b604051610232919061186a565b60405180910390f35b610243610653565b005b61025f600480360381019061025a9190611944565b6106af565b60405161026c9190611634565b60405180910390f35b61027d610769565b60405161028a91906117ae565b60405180910390f35b6102ad60048036038101906102a8919061199d565b6107fb565b005b6102b7610811565b6040516102c491906117ae565b60405180910390f35b6102e760048036038101906102e29190611b12565b61089f565b005b61030360048036038101906102fe91906117fc565b6108bc565b60405161031091906117ae565b60405180910390f35b610321610950565b005b61033d60048036038101906103389190611c36565b61096a565b005b61035960048036038101906103549190611c7f565b610a44565b6040516103669190611703565b60405180910390f35b6000600654905090565b60007f80ac58cd000000000000000000000000000000000000000000000000000000007bffffffffffffffffffffffffffffffffffffffffffffffffffffffff1916827bffffffffffffffffffffffffffffffffffffffffffffffffffffffff1916148061044457507f5b5e139f000000000000000000000000000000000000000000000000000000007bffffffffffffffffffffffffffffffffffffffffffffffffffffffff1916827bffffffffffffffffffffffffffffffffffffffffffffffffffffffff1916145b80610454575061045382610ad8565b5b9050919050565b60606000805461046a90611cee565b80601f016020809104026020016040519081016040528092919081815260200182805461049690611cee565b80156104e35780601f106104b8576101008083540402835291602001916104e3565b820191906000526020600020905b8154815290600101906020018083116104c657829003601f168201915b5050505050905090565b60006104f882610b42565b5061050282610bca565b9050919050565b61051b8282610516610c07565b610c0f565b5050565b600073ffffffffffffffffffffffffffffffffffffffff168273ffffffffffffffffffffffffffffffffffffffff16036105915760006040517f64a0ae92000000000000000000000000000000000000000000000000000000008152600401610588919061186a565b60405180910390fd5b60006105a583836105a0610c07565b610c21565b90508373ffffffffffffffffffffffffffffffffffffffff168173ffffffffffffffffffffffffffffffffffffffff161461061b578382826040517f64283d7b00000000000000000000000000000000000000000000000000000000815260040161061293929190611d1f565b60405180910390fd5b50505050565b61063c8383836040518060200160405280600081525061089f565b505050565b600061064c82610b42565b9050919050565b600654600760003373ffffffffffffffffffffffffffffffffffffffff1673ffffffffffffffffffffffffffffffffffffffff168152602001908152602001600020819055506106a533600654610e3b565b6106ad610950565b565b60008073ffffffffffffffffffffffffffffffffffffffff168273ffffffffffffffffffffffffffffffffffffffff16036107225760006040517f89c62b64000000000000000000000000000000000000000000000000000000008152600401610719919061186a565b60405180910390fd5b600360008373ffffffffffffffffffffffffffffffffffffffff1673ffffffffffffffffffffffffffffffffffffffff168152602001908152602001600020549050919050565b60606001805461077890611cee565b80601f01602080910402602001604051908101604052809291908181526020018280546107a490611cee565b80156107f15780601f106107c6576101008083540402835291602001916107f1565b820191906000526020600020905b8154815290600101906020018083116107d457829003601f168201915b5050505050905090565b61080d610806610c07565b8383610e59565b5050565b6008805461081e90611cee565b80601f016020809104026020016040519081016040528092919081815260200182805461084a90611cee565b80156108975780601f1061086c57610100808354040283529160200191610897565b820191906000526020600020905b81548152906001019060200180831161087a57829003601f168201915b505050505081565b6108aa84848461051f565b6108b684848484610fc8565b50505050565b6060600880546108cb90611cee565b80601f01602080910402602001604051908101604052809291908181526020018280546108f790611cee565b80156109445780601f1061091957610100808354040283529160200191610944565b820191906000526020600020905b81548152906001019060200180831161092757829003601f168201915b50505050509050919050565b6006600081548092919061096390611d85565b9190505550565b3373ffffffffffffffffffffffffffffffffffffffff16600960009054906101000a900473ffffffffffffffffffffffffffffffffffffffff1673ffffffffffffffffffffffffffffffffffffffff16146109fa576040517f08c379a00000000000000000000000000000000000000000000000000000000081526004016109f190611e19565b60405180910390fd5b7f09d827eec4d076dc41b055d2e1c704cbea6539df5370f2d72710473ff6e2ece781604051610a2991906117ae565b60405180910390a18060089081610a409190611fe5565b5050565b6000600560008473ffffffffffffffffffffffffffffffffffffffff1673ffffffffffffffffffffffffffffffffffffffff16815260200190815260200160002060008373ffffffffffffffffffffffffffffffffffffffff1673ffffffffffffffffffffffffffffffffffffffff16815260200190815260200160002060009054906101000a900460ff16905092915050565b60007f01ffc9a7000000000000000000000000000000000000000000000000000000007bffffffffffffffffffffffffffffffffffffffffffffffffffffffff1916827bffffffffffffffffffffffffffffffffffffffffffffffffffffffff1916149050919050565b600080610b4e8361117f565b9050600073ffffffffffffffffffffffffffffffffffffffff168173ffffffffffffffffffffffffffffffffffffffff1603610bc157826040517f7e273289000000000000000000000000000000000000000000000000000000008152600401610bb89190611634565b60405180910390fd5b80915050919050565b60006004600083815260200190815260200160002060009054906101000a900473ffffffffffffffffffffffffffffffffffffffff169050919050565b600033905090565b610c1c83838360016111bc565b505050565b600080610c2d8461117f565b9050600073ffffffffffffffffffffffffffffffffffffffff168373ffffffffffffffffffffffffffffffffffffffff1614610c6f57610c6e818486611381565b5b600073ffffffffffffffffffffffffffffffffffffffff168173ffffffffffffffffffffffffffffffffffffffff1614610d0057610cb16000856000806111bc565b6001600360008373ffffffffffffffffffffffffffffffffffffffff1673ffffffffffffffffffffffffffffffffffffffff168152602001908152602001600020600082825403925050819055505b600073ffffffffffffffffffffffffffffffffffffffff168573ffffffffffffffffffffffffffffffffffffffff1614610d83576001600360008773ffffffffffffffffffffffffffffffffffffffff1673ffffffffffffffffffffffffffffffffffffffff168152602001908152602001600020600082825401925050819055505b846002600086815260200190815260200160002060006101000a81548173ffffffffffffffffffffffffffffffffffffffff021916908373ffffffffffffffffffffffffffffffffffffffff160217905550838573ffffffffffffffffffffffffffffffffffffffff168273ffffffffffffffffffffffffffffffffffffffff167fddf252ad1be2c89b69c2b068fc378daa952ba7f163c4a11628f55a4df523b3ef60405160405180910390a4809150509392505050565b610e55828260405180602001604052806000815250611445565b5050565b600073ffffffffffffffffffffffffffffffffffffffff168273ffffffffffffffffffffffffffffffffffffffff1603610eca57816040517f5b08ba18000000000000000000000000000000000000000000000000000000008152600401610ec1919061186a565b60405180910390fd5b80600560008573ffffffffffffffffffffffffffffffffffffffff1673ffffffffffffffffffffffffffffffffffffffff16815260200190815260200160002060008473ffffffffffffffffffffffffffffffffffffffff1673ffffffffffffffffffffffffffffffffffffffff16815260200190815260200160002060006101000a81548160ff0219169083151502179055508173ffffffffffffffffffffffffffffffffffffffff168373ffffffffffffffffffffffffffffffffffffffff167f17307eab39ab6107e8899845ad3d59bd9653f200f220920489ca2b5937696c3183604051610fbb9190611703565b60405180910390a3505050565b60008373ffffffffffffffffffffffffffffffffffffffff163b1115611179578273ffffffffffffffffffffffffffffffffffffffff1663150b7a0261100c610c07565b8685856040518563ffffffff1660e01b815260040161102e949392919061210c565b6020604051808303816000875af192505050801561106a57506040513d601f19601f82011682018060405250810190611067919061216d565b60015b6110ee573d806000811461109a576040519150601f19603f3d011682016040523d82523d6000602084013e61109f565b606091505b5060008151036110e657836040517f64a0ae920000000000000000000000000000000000000000000000000000000081526004016110dd919061186a565b60405180910390fd5b805181602001fd5b63150b7a0260e01b7bffffffffffffffffffffffffffffffffffffffffffffffffffffffff1916817bffffffffffffffffffffffffffffffffffffffffffffffffffffffff19161461117757836040517f64a0ae9200000000000000000000000000000000000000000000000000000000815260040161116e919061186a565b60405180910390fd5b505b50505050565b60006002600083815260200190815260200160002060009054906101000a900473ffffffffffffffffffffffffffffffffffffffff169050919050565b80806111f55750600073ffffffffffffffffffffffffffffffffffffffff168273ffffffffffffffffffffffffffffffffffffffff1614155b1561132957600061120584610b42565b9050600073ffffffffffffffffffffffffffffffffffffffff168373ffffffffffffffffffffffffffffffffffffffff161415801561127057508273ffffffffffffffffffffffffffffffffffffffff168173ffffffffffffffffffffffffffffffffffffffff1614155b801561128357506112818184610a44565b155b156112c557826040517fa9fbf51f0000000000000000000000000000000000000000000000000000000081526004016112bc919061186a565b60405180910390fd5b811561132757838573ffffffffffffffffffffffffffffffffffffffff168273ffffffffffffffffffffffffffffffffffffffff167f8c5be1e5ebec7d5bd14f71427d1e84f3dd0314c0f7b2291e5b200ac8c7c3b92560405160405180910390a45b505b836004600085815260200190815260200160002060006101000a81548173ffffffffffffffffffffffffffffffffffffffff021916908373ffffffffffffffffffffffffffffffffffffffff16021790555050505050565b61138c838383611461565b61144057600073ffffffffffffffffffffffffffffffffffffffff168373ffffffffffffffffffffffffffffffffffffffff160361140157806040517f7e2732890000000000000000000000000000000000000000000000000000000081526004016113f89190611634565b60405180910390fd5b81816040517f177e802f00000000000000000000000000000000000000000000000000000000815260040161143792919061219a565b60405180910390fd5b505050565b61144f8383611522565b61145c6000848484610fc8565b505050565b60008073ffffffffffffffffffffffffffffffffffffffff168373ffffffffffffffffffffffffffffffffffffffff161415801561151957508273ffffffffffffffffffffffffffffffffffffffff168473ffffffffffffffffffffffffffffffffffffffff1614806114da57506114d98484610a44565b5b8061151857508273ffffffffffffffffffffffffffffffffffffffff1661150083610bca565b73ffffffffffffffffffffffffffffffffffffffff16145b5b90509392505050565b600073ffffffffffffffffffffffffffffffffffffffff168273ffffffffffffffffffffffffffffffffffffffff16036115945760006040517f64a0ae9200000000000000000000000000000000000000000000000000000000815260040161158b919061186a565b60405180910390fd5b60006115a283836000610c21565b9050600073ffffffffffffffffffffffffffffffffffffffff168173ffffffffffffffffffffffffffffffffffffffff16146116165760006040517f73c6ac6e00000000000000000000000000000000000000000000000000000000815260040161160d919061186a565b60405180910390fd5b505050565b6000819050919050565b61162e8161161b565b82525050565b60006020820190506116496000830184611625565b92915050565b6000604051905090565b600080fd5b600080fd5b60007fffffffff0000000000000000000000000000000000000000000000000000000082169050919050565b61169881611663565b81146116a357600080fd5b50565b6000813590506116b58161168f565b92915050565b6000602082840312156116d1576116d0611659565b5b60006116df848285016116a6565b91505092915050565b60008115159050919050565b6116fd816116e8565b82525050565b600060208201905061171860008301846116f4565b92915050565b600081519050919050565b600082825260208201905092915050565b60005b8381101561175857808201518184015260208101905061173d565b60008484015250505050565b6000601f19601f8301169050919050565b60006117808261171e565b61178a8185611729565b935061179a81856020860161173a565b6117a381611764565b840191505092915050565b600060208201905081810360008301526117c88184611775565b905092915050565b6117d98161161b565b81146117e457600080fd5b50565b6000813590506117f6816117d0565b92915050565b60006020828403121561181257611811611659565b5b6000611820848285016117e7565b91505092915050565b600073ffffffffffffffffffffffffffffffffffffffff82169050919050565b600061185482611829565b9050919050565b61186481611849565b82525050565b600060208201905061187f600083018461185b565b92915050565b61188e81611849565b811461189957600080fd5b50565b6000813590506118ab81611885565b92915050565b600080604083850312156118c8576118c7611659565b5b60006118d68582860161189c565b92505060206118e7858286016117e7565b9150509250929050565b60008060006060848603121561190a57611909611659565b5b60006119188682870161189c565b93505060206119298682870161189c565b925050604061193a868287016117e7565b9150509250925092565b60006020828403121561195a57611959611659565b5b60006119688482850161189c565b91505092915050565b61197a816116e8565b811461198557600080fd5b50565b60008135905061199781611971565b92915050565b600080604083850312156119b4576119b3611659565b5b60006119c28582860161189c565b92505060206119d385828601611988565b9150509250929050565b600080fd5b600080fd5b7f4e487b7100000000000000000000000000000000000000000000000000000000600052604160045260246000fd5b611a1f82611764565b810181811067ffffffffffffffff82111715611a3e57611a3d6119e7565b5b80604052505050565b6000611a5161164f565b9050611a5d8282611a16565b919050565b600067ffffffffffffffff821115611a7d57611a7c6119e7565b5b611a8682611764565b9050602081019050919050565b82818337600083830152505050565b6000611ab5611ab084611a62565b611a47565b905082815260208101848484011115611ad157611ad06119e2565b5b611adc848285611a93565b509392505050565b600082601f830112611af957611af86119dd565b5b8135611b09848260208601611aa2565b91505092915050565b60008060008060808587031215611b2c57611b2b611659565b5b6000611b3a8782880161189c565b9450506020611b4b8782880161189c565b9350506040611b5c878288016117e7565b925050606085013567ffffffffffffffff811115611b7d57611b7c61165e565b5b611b8987828801611ae4565b91505092959194509250565b600067ffffffffffffffff821115611bb057611baf6119e7565b5b611bb982611764565b9050602081019050919050565b6000611bd9611bd484611b95565b611a47565b905082815260208101848484011115611bf557611bf46119e2565b5b611c00848285611a93565b509392505050565b600082601f830112611c1d57611c1c6119dd565b5b8135611c2d848260208601611bc6565b91505092915050565b600060208284031215611c4c57611c4b611659565b5b600082013567ffffffffffffffff811115611c6a57611c6961165e565b5b611c7684828501611c08565b91505092915050565b60008060408385031215611c9657611c95611659565b5b6000611ca48582860161189c565b9250506020611cb58582860161189c565b9150509250929050565b7f4e487b7100000000000000000000000000000000000000000000000000000000600052602260045260246000fd5b60006002820490506001821680611d0657607f821691505b602082108103611d1957611d18611cbf565b5b50919050565b6000606082019050611d34600083018661185b565b611d416020830185611625565b611d4e604083018461185b565b949350505050565b7f4e487b7100000000000000000000000000000000000000000000000000000000600052601160045260246000fd5b6000611d908261161b565b91507fffffffffffffffffffffffffffffffffffffffffffffffffffffffffffffffff8203611dc257611dc1611d56565b5b600182019050919050565b7f4e6f7420416c6c6f77204d6574686f6421000000000000000000000000000000600082015250565b6000611e03601183611729565b9150611e0e82611dcd565b602082019050919050565b60006020820190508181036000830152611e3281611df6565b9050919050565b60008190508160005260206000209050919050565b60006020601f8301049050919050565b600082821b905092915050565b600060088302611e9b7fffffffffffffffffffffffffffffffffffffffffffffffffffffffffffffffff82611e5e565b611ea58683611e5e565b95508019841693508086168417925050509392505050565b6000819050919050565b6000611ee2611edd611ed88461161b565b611ebd565b61161b565b9050919050565b6000819050919050565b611efc83611ec7565b611f10611f0882611ee9565b848454611e6b565b825550505050565b600090565b611f25611f18565b611f30818484611ef3565b505050565b5b81811015611f5457611f49600082611f1d565b600181019050611f36565b5050565b601f821115611f9957611f6a81611e39565b611f7384611e4e565b81016020851015611f82578190505b611f96611f8e85611e4e565b830182611f35565b50505b505050565b600082821c905092915050565b6000611fbc60001984600802611f9e565b1980831691505092915050565b6000611fd58383611fab565b9150826002028217905092915050565b611fee8261171e565b67ffffffffffffffff811115612007576120066119e7565b5b6120118254611cee565b61201c828285611f58565b600060209050601f83116001811461204f576000841561203d578287015190505b6120478582611fc9565b8655506120af565b601f19841661205d86611e39565b60005b8281101561208557848901518255600182019150602085019450602081019050612060565b868310156120a2578489015161209e601f891682611fab565b8355505b6001600288020188555050505b505050505050565b600081519050919050565b600082825260208201905092915050565b60006120de826120b7565b6120e881856120c2565b93506120f881856020860161173a565b61210181611764565b840191505092915050565b6000608082019050612121600083018761185b565b61212e602083018661185b565b61213b6040830185611625565b818103606083015261214d81846120d3565b905095945050505050565b6000815190506121678161168f565b92915050565b60006020828403121561218357612182611659565b5b600061219184828501612158565b91505092915050565b60006040820190506121af600083018561185b565b6121bc6020830184611625565b939250505056fea2646970667358221220586a07e8adf7a4abc13fa312feb2b05515134b9c314c5533fa117e3aab90c99464736f6c63430008150033",
  "immutableReferences": {},
  "source": "// SPDX-License-Identifier: MIT\npragma solidity ^0.8.21;\n\nimport '@openzeppelin/contracts/token/ERC721/ERC721.sol';\n\ncontract Follower is ERC721 {\n  uint256 private _tokenId;\n  mapping(address => uint256) _ownerList;\n  string public _tokenURI;\n  address private _authorAddress;\n\n  function increment() public {\n    _tokenId++;\n  }\n\n  modifier isAuthor() {\n    require(_authorAddress == msg.sender, \"Not Allow Method!\");\n    _;\n  }\n\n  function getTokenId() public view returns (uint256) {\n    return _tokenId;\n  }\n\n  constructor() ERC721('Follower', 'F') {\n    _tokenId = 0;\n    _tokenURI = \"my url\";\n    _authorAddress = msg.sender;\n  }\n\n  event callSetTokenURI(string tokenURI);\n  function setTokenURI(string memory tokenURI2) public isAuthor {\n    emit callSetTokenURI(tokenURI2);\n    _tokenURI = tokenURI2;\n  }\n\n  event callTokenURI(uint256 tokenId);\n\n  function tokenURI(uint256 tokenUri) public view virtual override(ERC721) returns (string memory) {\n    return _tokenURI;\n  }\n\n  function safeMint() public {\n    _ownerList[msg.sender] = _tokenId;\n    _safeMint(msg.sender, _tokenId);\n    increment();\n  }\n}\n",
  "sourcePath": "/Users/khoadao/Desktop/workspace/solidity/SolidityProject/contracts/Follower.sol",
  "compiler": {
    "name": "solc",
    "version": "0.8.21+commit.d9974bed.Emscripten.clang"
  },
  "schemaVersion": "3.4.16",
  "updatedAt": "2024-07-28T15:02:28.274Z",
  "devdoc": {
    "errors": {
      "ERC721IncorrectOwner(address,uint256,address)": [
        {
          "details": "Indicates an error related to the ownership over a particular token. Used in transfers.",
          "params": {
            "owner": "Address of the current owner of a token.",
            "sender": "Address whose tokens are being transferred.",
            "tokenId": "Identifier number of a token."
          }
        }
      ],
      "ERC721InsufficientApproval(address,uint256)": [
        {
          "details": "Indicates a failure with the `operator`s approval. Used in transfers.",
          "params": {
            "operator": "Address that may be allowed to operate on tokens without being their owner.",
            "tokenId": "Identifier number of a token."
          }
        }
      ],
      "ERC721InvalidApprover(address)": [
        {
          "details": "Indicates a failure with the `approver` of a token to be approved. Used in approvals.",
          "params": {
            "approver": "Address initiating an approval operation."
          }
        }
      ],
      "ERC721InvalidOperator(address)": [
        {
          "details": "Indicates a failure with the `operator` to be approved. Used in approvals.",
          "params": {
            "operator": "Address that may be allowed to operate on tokens without being their owner."
          }
        }
      ],
      "ERC721InvalidOwner(address)": [
        {
          "details": "Indicates that an address can't be an owner. For example, `address(0)` is a forbidden owner in EIP-20. Used in balance queries.",
          "params": {
            "owner": "Address of the current owner of a token."
          }
        }
      ],
      "ERC721InvalidReceiver(address)": [
        {
          "details": "Indicates a failure with the token `receiver`. Used in transfers.",
          "params": {
            "receiver": "Address to which tokens are being transferred."
          }
        }
      ],
      "ERC721InvalidSender(address)": [
        {
          "details": "Indicates a failure with the token `sender`. Used in transfers.",
          "params": {
            "sender": "Address whose tokens are being transferred."
          }
        }
      ],
      "ERC721NonexistentToken(uint256)": [
        {
          "details": "Indicates a `tokenId` whose `owner` is the zero address.",
          "params": {
            "tokenId": "Identifier number of a token."
          }
        }
      ]
    },
    "events": {
      "Approval(address,address,uint256)": {
        "details": "Emitted when `owner` enables `approved` to manage the `tokenId` token."
      },
      "ApprovalForAll(address,address,bool)": {
        "details": "Emitted when `owner` enables or disables (`approved`) `operator` to manage all of its assets."
      },
      "Transfer(address,address,uint256)": {
        "details": "Emitted when `tokenId` token is transferred from `from` to `to`."
      }
    },
    "kind": "dev",
    "methods": {
      "approve(address,uint256)": {
        "details": "See {IERC721-approve}."
      },
      "balanceOf(address)": {
        "details": "See {IERC721-balanceOf}."
      },
      "getApproved(uint256)": {
        "details": "See {IERC721-getApproved}."
      },
      "isApprovedForAll(address,address)": {
        "details": "See {IERC721-isApprovedForAll}."
      },
      "name()": {
        "details": "See {IERC721Metadata-name}."
      },
      "ownerOf(uint256)": {
        "details": "See {IERC721-ownerOf}."
      },
      "safeTransferFrom(address,address,uint256)": {
        "details": "See {IERC721-safeTransferFrom}."
      },
      "safeTransferFrom(address,address,uint256,bytes)": {
        "details": "See {IERC721-safeTransferFrom}."
      },
      "setApprovalForAll(address,bool)": {
        "details": "See {IERC721-setApprovalForAll}."
      },
      "supportsInterface(bytes4)": {
        "details": "See {IERC165-supportsInterface}."
      },
      "symbol()": {
        "details": "See {IERC721Metadata-symbol}."
      },
      "transferFrom(address,address,uint256)": {
        "details": "See {IERC721-transferFrom}."
      }
    },
    "version": 1
  },
  "userdoc": {
    "kind": "user",
    "methods": {},
    "version": 1
  }
}